:0300000002093AB8
:0C093A00787FE4F6D8FD7581070208A361
:1008F5006F62737461636C652064657465637465A8
:10090500640A006E6F206F62737461636C650A0020
:0F092B00759850438920758DFD758BFDD28E22F6
:100915001208006010F5993099FDC299740129F902
:06092500E43AFA80EB2227
:0B094600EF1FAC0670011E4C70F62283
:1008D500E4FDFCC3ED9FEC9E5015E4FBFA0BBB0059
:0F08E500010ABA04F8BBFBF50DBD00010C80E45D
:0108F40022E1
:10086E00E4FBFAC2A07F02FE120946D2A07F0A7EE6
:10087E0000120946C2A030A1FD30A10E0BBB000133
:10088E000A7F0A7E0012094680EFAE02AF037C009B
:05089E007D3A0208197B
:1008A30012092B12086ED3EF9400EE94004011D37B
:1008B300EF940FEE940050087BFF7A0879F58006D9
:1008C3007BFF7A0979081209157FF47E011208D596
:0208D30080D1D2
:10080000BB010689828A83E0225002E722BBFE02F6
:09081000E32289828A83E4932229
:10081900BC000BBE0029EF8DF084FFADF022E4CCC3
:10082900F875F008EF2FFFEE33FEEC33FCEE9DEC8C
:10083900984005FCEE9DFE0FD5F0E9E4CEFD22EDD2
:10084900F8F5F0EE8420D21CFEADF075F008EF2F1C
:10085900FFED33FD4007985006D5F0F222C398FD0D
:050869000FD5F0EA22AA
:00000001FF
